{
  "contractName": "Allostasis",
  "abi": [
    {
      "inputs": [],
      "stateMutability": "nonpayable",
      "type": "constructor"
    },
    {
      "anonymous": false,
      "inputs": [
        {
          "indexed": true,
          "internalType": "address",
          "name": "previousOwner",
          "type": "address"
        },
        {
          "indexed": true,
          "internalType": "address",
          "name": "newOwner",
          "type": "address"
        }
      ],
      "name": "OwnershipTransferred",
      "type": "event"
    },
    {
      "anonymous": false,
      "inputs": [
        {
          "indexed": false,
          "internalType": "address",
          "name": "account",
          "type": "address"
        }
      ],
      "name": "Paused",
      "type": "event"
    },
    {
      "anonymous": false,
      "inputs": [
        {
          "indexed": false,
          "internalType": "address",
          "name": "",
          "type": "address"
        },
        {
          "indexed": false,
          "internalType": "uint256",
          "name": "",
          "type": "uint256"
        }
      ],
      "name": "Received",
      "type": "event"
    },
    {
      "anonymous": false,
      "inputs": [
        {
          "indexed": true,
          "internalType": "address",
          "name": "from_",
          "type": "address"
        },
        {
          "indexed": true,
          "internalType": "address",
          "name": "to_",
          "type": "address"
        },
        {
          "indexed": false,
          "internalType": "uint256",
          "name": "amount_",
          "type": "uint256"
        }
      ],
      "name": "TransferFailed",
      "type": "event"
    },
    {
      "anonymous": false,
      "inputs": [
        {
          "indexed": true,
          "internalType": "address",
          "name": "from_",
          "type": "address"
        },
        {
          "indexed": true,
          "internalType": "address",
          "name": "to_",
          "type": "address"
        },
        {
          "indexed": false,
          "internalType": "uint256",
          "name": "amount_",
          "type": "uint256"
        }
      ],
      "name": "TransferSuccessful",
      "type": "event"
    },
    {
      "anonymous": false,
      "inputs": [
        {
          "indexed": false,
          "internalType": "address",
          "name": "account",
          "type": "address"
        }
      ],
      "name": "Unpaused",
      "type": "event"
    },
    {
      "inputs": [],
      "name": "ERC20Interface",
      "outputs": [
        {
          "internalType": "contract ERC20",
          "name": "",
          "type": "address"
        }
      ],
      "stateMutability": "view",
      "type": "function",
      "constant": true
    },
    {
      "inputs": [
        {
          "internalType": "uint256",
          "name": "",
          "type": "uint256"
        }
      ],
      "name": "entities",
      "outputs": [
        {
          "internalType": "bytes32",
          "name": "type_",
          "type": "bytes32"
        },
        {
          "internalType": "bytes32",
          "name": "relation1_",
          "type": "bytes32"
        },
        {
          "internalType": "bytes32",
          "name": "relation2_",
          "type": "bytes32"
        },
        {
          "internalType": "address",
          "name": "owner_",
          "type": "address"
        },
        {
          "internalType": "address",
          "name": "to_",
          "type": "address"
        },
        {
          "internalType": "bool",
          "name": "access_",
          "type": "bool"
        }
      ],
      "stateMutability": "view",
      "type": "function",
      "constant": true
    },
    {
      "inputs": [
        {
          "internalType": "address",
          "name": "",
          "type": "address"
        },
        {
          "internalType": "uint256",
          "name": "",
          "type": "uint256"
        }
      ],
      "name": "entityIndexesToOwner",
      "outputs": [
        {
          "internalType": "uint256",
          "name": "",
          "type": "uint256"
        }
      ],
      "stateMutability": "view",
      "type": "function",
      "constant": true
    },
    {
      "inputs": [
        {
          "internalType": "bytes32",
          "name": "",
          "type": "bytes32"
        },
        {
          "internalType": "uint256",
          "name": "",
          "type": "uint256"
        }
      ],
      "name": "entityIndexesToRelation1",
      "outputs": [
        {
          "internalType": "uint256",
          "name": "",
          "type": "uint256"
        }
      ],
      "stateMutability": "view",
      "type": "function",
      "constant": true
    },
    {
      "inputs": [
        {
          "internalType": "bytes32",
          "name": "",
          "type": "bytes32"
        },
        {
          "internalType": "uint256",
          "name": "",
          "type": "uint256"
        }
      ],
      "name": "entityIndexesToRelation2",
      "outputs": [
        {
          "internalType": "uint256",
          "name": "",
          "type": "uint256"
        }
      ],
      "stateMutability": "view",
      "type": "function",
      "constant": true
    },
    {
      "inputs": [
        {
          "internalType": "address",
          "name": "",
          "type": "address"
        },
        {
          "internalType": "uint256",
          "name": "",
          "type": "uint256"
        }
      ],
      "name": "entityIndexesToTarget",
      "outputs": [
        {
          "internalType": "uint256",
          "name": "",
          "type": "uint256"
        }
      ],
      "stateMutability": "view",
      "type": "function",
      "constant": true
    },
    {
      "inputs": [],
      "name": "owner",
      "outputs": [
        {
          "internalType": "address",
          "name": "",
          "type": "address"
        }
      ],
      "stateMutability": "view",
      "type": "function",
      "constant": true
    },
    {
      "inputs": [],
      "name": "paused",
      "outputs": [
        {
          "internalType": "bool",
          "name": "",
          "type": "bool"
        }
      ],
      "stateMutability": "view",
      "type": "function",
      "constant": true
    },
    {
      "inputs": [],
      "name": "renounceOwnership",
      "outputs": [],
      "stateMutability": "nonpayable",
      "type": "function"
    },
    {
      "inputs": [
        {
          "internalType": "bytes32",
          "name": "",
          "type": "bytes32"
        }
      ],
      "name": "tokens",
      "outputs": [
        {
          "internalType": "address",
          "name": "",
          "type": "address"
        }
      ],
      "stateMutability": "view",
      "type": "function",
      "constant": true
    },
    {
      "inputs": [
        {
          "internalType": "address",
          "name": "",
          "type": "address"
        },
        {
          "internalType": "uint256",
          "name": "",
          "type": "uint256"
        }
      ],
      "name": "transactionIndexesToSender",
      "outputs": [
        {
          "internalType": "uint256",
          "name": "",
          "type": "uint256"
        }
      ],
      "stateMutability": "view",
      "type": "function",
      "constant": true
    },
    {
      "inputs": [
        {
          "internalType": "uint256",
          "name": "",
          "type": "uint256"
        }
      ],
      "name": "transactions",
      "outputs": [
        {
          "internalType": "address",
          "name": "contract_",
          "type": "address"
        },
        {
          "internalType": "address",
          "name": "to_",
          "type": "address"
        },
        {
          "internalType": "address",
          "name": "from_",
          "type": "address"
        },
        {
          "internalType": "uint256",
          "name": "amount_",
          "type": "uint256"
        },
        {
          "internalType": "bytes32",
          "name": "type_",
          "type": "bytes32"
        },
        {
          "internalType": "bytes32",
          "name": "relation1_",
          "type": "bytes32"
        },
        {
          "internalType": "bytes32",
          "name": "relation2_",
          "type": "bytes32"
        },
        {
          "internalType": "bool",
          "name": "failed_",
          "type": "bool"
        }
      ],
      "stateMutability": "view",
      "type": "function",
      "constant": true
    },
    {
      "inputs": [
        {
          "internalType": "address",
          "name": "newOwner",
          "type": "address"
        }
      ],
      "name": "transferOwnership",
      "outputs": [],
      "stateMutability": "nonpayable",
      "type": "function"
    },
    {
      "stateMutability": "payable",
      "type": "receive",
      "payable": true
    },
    {
      "inputs": [
        {
          "internalType": "bytes32",
          "name": "symbol_",
          "type": "bytes32"
        },
        {
          "internalType": "address",
          "name": "address_",
          "type": "address"
        }
      ],
      "name": "addNewToken",
      "outputs": [
        {
          "internalType": "bool",
          "name": "",
          "type": "bool"
        }
      ],
      "stateMutability": "nonpayable",
      "type": "function"
    },
    {
      "inputs": [
        {
          "internalType": "bytes32",
          "name": "symbol_",
          "type": "bytes32"
        }
      ],
      "name": "removeToken",
      "outputs": [
        {
          "internalType": "bool",
          "name": "",
          "type": "bool"
        }
      ],
      "stateMutability": "nonpayable",
      "type": "function"
    },
    {
      "inputs": [
        {
          "internalType": "bytes32",
          "name": "type_",
          "type": "bytes32"
        },
        {
          "internalType": "bytes32",
          "name": "relation1_",
          "type": "bytes32"
        },
        {
          "internalType": "bytes32",
          "name": "relation2_",
          "type": "bytes32"
        }
      ],
      "name": "createEntity",
      "outputs": [],
      "stateMutability": "nonpayable",
      "type": "function"
    },
    {
      "inputs": [
        {
          "internalType": "bytes32",
          "name": "type_",
          "type": "bytes32"
        },
        {
          "internalType": "bytes32",
          "name": "relation1_",
          "type": "bytes32"
        },
        {
          "internalType": "bytes32",
          "name": "relation2_",
          "type": "bytes32"
        },
        {
          "internalType": "address",
          "name": "to_",
          "type": "address"
        },
        {
          "internalType": "bool",
          "name": "access_",
          "type": "bool"
        }
      ],
      "name": "accessEntity",
      "outputs": [],
      "stateMutability": "nonpayable",
      "type": "function"
    },
    {
      "inputs": [
        {
          "internalType": "bytes32",
          "name": "symbol_",
          "type": "bytes32"
        },
        {
          "internalType": "address",
          "name": "to_",
          "type": "address"
        },
        {
          "internalType": "uint256",
          "name": "amount_",
          "type": "uint256"
        },
        {
          "internalType": "bytes32",
          "name": "type_",
          "type": "bytes32"
        },
        {
          "internalType": "bytes32",
          "name": "relation1_",
          "type": "bytes32"
        },
        {
          "internalType": "bytes32",
          "name": "relation2_",
          "type": "bytes32"
        }
      ],
      "name": "transferTokens",
      "outputs": [],
      "stateMutability": "nonpayable",
      "type": "function"
    },
    {
      "inputs": [
        {
          "internalType": "address payable",
          "name": "beneficiary",
          "type": "address"
        }
      ],
      "name": "withdraw",
      "outputs": [],
      "stateMutability": "payable",
      "type": "function",
      "payable": true
    },
    {
      "inputs": [
        {
          "internalType": "address",
          "name": "from_",
          "type": "address"
        },
        {
          "internalType": "bytes32",
          "name": "type_",
          "type": "bytes32"
        },
        {
          "internalType": "bytes32",
          "name": "relation1_",
          "type": "bytes32"
        },
        {
          "internalType": "bytes32",
          "name": "relation2_",
          "type": "bytes32"
        }
      ],
      "name": "canDecrypt",
      "outputs": [
        {
          "internalType": "bool",
          "name": "",
          "type": "bool"
        }
      ],
      "stateMutability": "view",
      "type": "function",
      "constant": true
    },
    {
      "inputs": [
        {
          "internalType": "bytes32",
          "name": "type_",
          "type": "bytes32"
        },
        {
          "internalType": "bytes32",
          "name": "relation1_",
          "type": "bytes32"
        },
        {
          "internalType": "bytes32",
          "name": "relation2_",
          "type": "bytes32"
        }
      ],
      "name": "entityBuyers",
      "outputs": [
        {
          "internalType": "address[]",
          "name": "",
          "type": "address[]"
        }
      ],
      "stateMutability": "view",
      "type": "function",
      "constant": true
    },
    {
      "inputs": [
        {
          "internalType": "bytes32",
          "name": "type_",
          "type": "bytes32"
        },
        {
          "internalType": "bytes32",
          "name": "relation1_",
          "type": "bytes32"
        },
        {
          "internalType": "bytes32",
          "name": "relation2_",
          "type": "bytes32"
        }
      ],
      "name": "entityPermissions",
      "outputs": [
        {
          "internalType": "address[]",
          "name": "",
          "type": "address[]"
        }
      ],
      "stateMutability": "view",
      "type": "function",
      "constant": true
    }
  ],
  "bytecode": "0x608060405234801561001057600080fd5b5060006100216100de60201b60201c565b9050806000806101000a81548173ffffffffffffffffffffffffffffffffffffffff021916908373ffffffffffffffffffffffffffffffffffffffff1602179055508073ffffffffffffffffffffffffffffffffffffffff16600073ffffffffffffffffffffffffffffffffffffffff167f8be0079c531659141344cd1fd0a4f28419497f9722a3daafe3b4186f6b6457e060405160405180910390a35060008060146101000a81548160ff0219169083151502179055506100e6565b600033905090565b612ed580620000f66000396000f3fe6080604052600436106101395760003560e01c8063676f271a116100ab578063b082443b1161006f578063b082443b146108be578063c00b3bad14610931578063c4796437146109b8578063d49239da14610a27578063ed15e3cf14610acb578063f2fde38b14610b1a576101ab565b8063676f271a14610674578063715018a6146106cd5780638da5cb5b146106e4578063904194a31461073b5780639ace38c2146107b6576101ab565b80633cbfd78e116100fd5780633cbfd78e146103b357806351cff8d9146104575780635912e9db1461049b5780635c975abb146104f45780636331883b14610523578063675b0f89146105f1576101ab565b80631bbc4b83146101b05780631c909e1814610207578063224e7462146102825780632920b5e6146102d55780632ceb26ff14610344576101ab565b366101ab577f88a5966d370b9919b20f3e2c13ff65706f196a4e32cc2c12bf57088f885258743334604051808373ffffffffffffffffffffffffffffffffffffffff1673ffffffffffffffffffffffffffffffffffffffff1681526020018281526020019250505060405180910390a1005b600080fd5b3480156101bc57600080fd5b506101c5610b6b565b604051808273ffffffffffffffffffffffffffffffffffffffff1673ffffffffffffffffffffffffffffffffffffffff16815260200191505060405180910390f35b34801561021357600080fd5b50610280600480360360a081101561022a57600080fd5b81019080803590602001909291908035906020019092919080359060200190929190803573ffffffffffffffffffffffffffffffffffffffff169060200190929190803515159060200190929190505050610b91565b005b34801561028e57600080fd5b506102bb600480360360208110156102a557600080fd5b8101908080359060200190929190505050610fdd565b604051808215151515815260200191505060405180910390f35b3480156102e157600080fd5b5061032e600480360360408110156102f857600080fd5b81019080803573ffffffffffffffffffffffffffffffffffffffff1690602001909291908035906020019092919050505061113a565b6040518082815260200191505060405180910390f35b34801561035057600080fd5b5061039d6004803603604081101561036757600080fd5b81019080803573ffffffffffffffffffffffffffffffffffffffff16906020019092919080359060200190929190505050611168565b6040518082815260200191505060405180910390f35b3480156103bf57600080fd5b50610400600480360360608110156103d657600080fd5b81019080803590602001909291908035906020019092919080359060200190929190505050611196565b6040518080602001828103825283818151815260200191508051906020019060200280838360005b83811015610443578082015181840152602081019050610428565b505050509050019250505060405180910390f35b6104996004803603602081101561046d57600080fd5b81019080803573ffffffffffffffffffffffffffffffffffffffff16906020019092919050505061160d565b005b3480156104a757600080fd5b506104de600480360360408110156104be57600080fd5b810190808035906020019092919080359060200190929190505050611781565b6040518082815260200191505060405180910390f35b34801561050057600080fd5b506105096117af565b604051808215151515815260200191505060405180910390f35b34801561052f57600080fd5b5061055c6004803603602081101561054657600080fd5b81019080803590602001909291905050506117c5565b604051808781526020018681526020018581526020018473ffffffffffffffffffffffffffffffffffffffff1673ffffffffffffffffffffffffffffffffffffffff1681526020018373ffffffffffffffffffffffffffffffffffffffff1673ffffffffffffffffffffffffffffffffffffffff16815260200182151515158152602001965050505050505060405180910390f35b3480156105fd57600080fd5b50610672600480360360c081101561061457600080fd5b8101908080359060200190929190803573ffffffffffffffffffffffffffffffffffffffff1690602001909291908035906020019092919080359060200190929190803590602001909291908035906020019092919050505061185b565b005b34801561068057600080fd5b506106b76004803603604081101561069757600080fd5b810190808035906020019092919080359060200190929190505050611f4c565b6040518082815260200191505060405180910390f35b3480156106d957600080fd5b506106e2611f7a565b005b3480156106f057600080fd5b506106f96120e8565b604051808273ffffffffffffffffffffffffffffffffffffffff1673ffffffffffffffffffffffffffffffffffffffff16815260200191505060405180910390f35b34801561074757600080fd5b506107746004803603602081101561075e57600080fd5b8101908080359060200190929190505050612111565b604051808273ffffffffffffffffffffffffffffffffffffffff1673ffffffffffffffffffffffffffffffffffffffff16815260200191505060405180910390f35b3480156107c257600080fd5b506107ef600480360360208110156107d957600080fd5b8101908080359060200190929190505050612144565b604051808973ffffffffffffffffffffffffffffffffffffffff1673ffffffffffffffffffffffffffffffffffffffff1681526020018873ffffffffffffffffffffffffffffffffffffffff1673ffffffffffffffffffffffffffffffffffffffff1681526020018773ffffffffffffffffffffffffffffffffffffffff1673ffffffffffffffffffffffffffffffffffffffff168152602001868152602001858152602001848152602001838152602001821515151581526020019850505050505050505060405180910390f35b3480156108ca57600080fd5b50610917600480360360408110156108e157600080fd5b8101908080359060200190929190803573ffffffffffffffffffffffffffffffffffffffff169060200190929190505050612206565b604051808215151515815260200191505060405180910390f35b34801561093d57600080fd5b5061099e6004803603608081101561095457600080fd5b81019080803573ffffffffffffffffffffffffffffffffffffffff169060200190929190803590602001909291908035906020019092919080359060200190929190505050612313565b604051808215151515815260200191505060405180910390f35b3480156109c457600080fd5b50610a11600480360360408110156109db57600080fd5b81019080803573ffffffffffffffffffffffffffffffffffffffff1690602001909291908035906020019092919050505061271b565b6040518082815260200191505060405180910390f35b348015610a3357600080fd5b50610a7460048036036060811015610a4a57600080fd5b81019080803590602001909291908035906020019092919080359060200190929190505050612749565b6040518080602001828103825283818151815260200191508051906020019060200280838360005b83811015610ab7578082015181840152602081019050610a9c565b505050509050019250505060405180910390f35b348015610ad757600080fd5b50610b1860048036036060811015610aee57600080fd5b8101908080359060200190929190803590602001909291908035906020019092919050505061295c565b005b348015610b2657600080fd5b50610b6960048036036020811015610b3d57600080fd5b81019080803573ffffffffffffffffffffffffffffffffffffffff169060200190929190505050612c7e565b005b600960009054906101000a900473ffffffffffffffffffffffffffffffffffffffff1681565b610b996117af565b15610c0c576040517f08c379a00000000000000000000000000000000000000000000000000000000081526004018080602001828103825260108152602001807f5061757361626c653a207061757365640000000000000000000000000000000081525060200191505060405180910390fd5b60003390508273ffffffffffffffffffffffffffffffffffffffff168173ffffffffffffffffffffffffffffffffffffffff1614610fd557600080905060008090505b600360008473ffffffffffffffffffffffffffffffffffffffff1673ffffffffffffffffffffffffffffffffffffffff16815260200190815260200160002080549050811015610d82576000600360008573ffffffffffffffffffffffffffffffffffffffff1673ffffffffffffffffffffffffffffffffffffffff1681526020019081526020016000208281548110610ce557fe5b906000526020600020015490508860078281548110610d0057fe5b906000526020600020906005020160000154148015610d3c57508760078281548110610d2857fe5b906000526020600020906005020160010154145b8015610d6557508660078281548110610d5157fe5b906000526020600020906005020160020154145b15610d74576001925050610d82565b508080600101915050610c4f565b50600115158115151415610fd35760076040518060c001604052808981526020018881526020018781526020018473ffffffffffffffffffffffffffffffffffffffff1681526020018673ffffffffffffffffffffffffffffffffffffffff168152602001851515815250908060018154018082558091505060019003906000526020600020906005020160009091909190915060008201518160000155602082015181600101556040820151816002015560608201518160030160006101000a81548173ffffffffffffffffffffffffffffffffffffffff021916908373ffffffffffffffffffffffffffffffffffffffff16021790555060808201518160040160006101000a81548173ffffffffffffffffffffffffffffffffffffffff021916908373ffffffffffffffffffffffffffffffffffffffff16021790555060a08201518160040160146101000a81548160ff021916908315150217905550505060006007805490509050600460008673ffffffffffffffffffffffffffffffffffffffff1673ffffffffffffffffffffffffffffffffffffffff1681526020019081526020016000206001820390806001815401808255809150506001900390600052602060002001600090919091909150556005600088815260200190815260200160002060018203908060018154018082558091505060019003906000526020600020016000909190919091505560066000878152602001908152602001600020600182039080600181540180825580915050600190039060005260206000200160009091909190915055505b505b505050505050565b6000610fe7612e71565b73ffffffffffffffffffffffffffffffffffffffff166110056120e8565b73ffffffffffffffffffffffffffffffffffffffff161461108e576040517f08c379a00000000000000000000000000000000000000000000000000000000081526004018080602001828103825260208152602001807f4f776e61626c653a2063616c6c6572206973206e6f7420746865206f776e657281525060200191505060405180910390fd5b600073ffffffffffffffffffffffffffffffffffffffff166008600084815260200190815260200160002060009054906101000a900473ffffffffffffffffffffffffffffffffffffffff1673ffffffffffffffffffffffffffffffffffffffff1614156110fb57600080fd5b6008600083815260200190815260200160002060006101000a81549073ffffffffffffffffffffffffffffffffffffffff021916905560019050919050565b6003602052816000526040600020818154811061115357fe5b90600052602060002001600091509150505481565b6004602052816000526040600020818154811061118157fe5b90600052602060002001600091509150505481565b60606000600190506000600560008681526020019081526020016000208054905090505b60008111156112905760006005600087815260200190815260200160002060018303815481106111e657fe5b9060005260206000200154905060056000878152602001908152602001600020600183038154811061121457fe5b906000526020600020015460066000878152602001908152602001600020600184038154811061124057fe5b90600052602060002001541480156112755750866007828154811061126157fe5b906000526020600020906005020160000154145b15611281576001830192505b508080600190039150506111ba565b506060816040519080825280602002602001820160405280156112c25781602001602082028038833980820191505090505b5090506060826040519080825280602002602001820160405280156112f65781602001602082028038833980820191505090505b509050600080905060008090506000600560008a81526020019081526020016000208054905090505b60008111156115fd576000600560008b8152602001908152602001600020600183038154811061134b57fe5b90600052602060002001549050600560008b8152602001908152602001600020600183038154811061137957fe5b9060005260206000200154600660008b815260200190815260200160002060018403815481106113a557fe5b90600052602060002001541480156113da57508a600782815481106113c657fe5b906000526020600020906005020160000154145b156115ee57600080905060008090505b865181101561148e576007838154811061140057fe5b906000526020600020906005020160040160009054906101000a900473ffffffffffffffffffffffffffffffffffffffff1673ffffffffffffffffffffffffffffffffffffffff1687828151811061145457fe5b602002602001015173ffffffffffffffffffffffffffffffffffffffff161415611481576001915061148e565b80806001019150506113ea565b506000151581151514156115ec57600782815481106114a957fe5b906000526020600020906005020160040160009054906101000a900473ffffffffffffffffffffffffffffffffffffffff168685815181106114e757fe5b602002602001019073ffffffffffffffffffffffffffffffffffffffff16908173ffffffffffffffffffffffffffffffffffffffff1681525050600184019350600115156007838154811061153857fe5b906000526020600020906005020160040160149054906101000a900460ff16151514156115eb576007828154811061156c57fe5b906000526020600020906005020160040160009054906101000a900473ffffffffffffffffffffffffffffffffffffffff168786815181106115aa57fe5b602002602001019073ffffffffffffffffffffffffffffffffffffffff16908173ffffffffffffffffffffffffffffffffffffffff16815250506001850194505b5b505b5080806001900391505061131f565b5083955050505050509392505050565b611615612e71565b73ffffffffffffffffffffffffffffffffffffffff166116336120e8565b73ffffffffffffffffffffffffffffffffffffffff16146116bc576040517f08c379a00000000000000000000000000000000000000000000000000000000081526004018080602001828103825260208152602001807f4f776e61626c653a2063616c6c6572206973206e6f7420746865206f776e657281525060200191505060405180910390fd5b6116c46117af565b15611737576040517f08c379a00000000000000000000000000000000000000000000000000000000081526004018080602001828103825260108152602001807f5061757361626c653a207061757365640000000000000000000000000000000081525060200191505060405180910390fd5b8073ffffffffffffffffffffffffffffffffffffffff166108fc479081150290604051600060405180830381858888f1935050505015801561177d573d6000803e3d6000fd5b5050565b6005602052816000526040600020818154811061179a57fe5b90600052602060002001600091509150505481565b60008060149054906101000a900460ff16905090565b600781815481106117d257fe5b90600052602060002090600502016000915090508060000154908060010154908060020154908060030160009054906101000a900473ffffffffffffffffffffffffffffffffffffffff16908060040160009054906101000a900473ffffffffffffffffffffffffffffffffffffffff16908060040160149054906101000a900460ff16905086565b6118636117af565b156118d6576040517f08c379a00000000000000000000000000000000000000000000000000000000081526004018080602001828103825260108152602001807f5061757361626c653a207061757365640000000000000000000000000000000081525060200191505060405180910390fd5b600073ffffffffffffffffffffffffffffffffffffffff166008600088815260200190815260200160002060009054906101000a900473ffffffffffffffffffffffffffffffffffffffff1673ffffffffffffffffffffffffffffffffffffffff16141561194357600080fd5b6000841161195057600080fd5b60006008600088815260200190815260200160002060009054906101000a900473ffffffffffffffffffffffffffffffffffffffff169050600033905081600960006101000a81548173ffffffffffffffffffffffffffffffffffffffff021916908373ffffffffffffffffffffffffffffffffffffffff16021790555060026040518061010001604052808473ffffffffffffffffffffffffffffffffffffffff1681526020018973ffffffffffffffffffffffffffffffffffffffff1681526020018373ffffffffffffffffffffffffffffffffffffffff16815260200188815260200187815260200186815260200185815260200160011515815250908060018154018082558091505060019003906000526020600020906008020160009091909190915060008201518160000160006101000a81548173ffffffffffffffffffffffffffffffffffffffff021916908373ffffffffffffffffffffffffffffffffffffffff16021790555060208201518160010160006101000a81548173ffffffffffffffffffffffffffffffffffffffff021916908373ffffffffffffffffffffffffffffffffffffffff16021790555060408201518160020160006101000a81548173ffffffffffffffffffffffffffffffffffffffff021916908373ffffffffffffffffffffffffffffffffffffffff160217905550606082015181600301556080820151816004015560a0820151816005015560c0820151816006015560e08201518160070160006101000a81548160ff021916908315150217905550505060006002805490509050600160008373ffffffffffffffffffffffffffffffffffffffff1673ffffffffffffffffffffffffffffffffffffffff168152602001908152602001600020600182039080600181540180825580915050600190039060005260206000200160009091909190915055600960009054906101000a900473ffffffffffffffffffffffffffffffffffffffff1673ffffffffffffffffffffffffffffffffffffffff1663dd62ed3e83306040518363ffffffff1660e01b8152600401808373ffffffffffffffffffffffffffffffffffffffff1673ffffffffffffffffffffffffffffffffffffffff1681526020018273ffffffffffffffffffffffffffffffffffffffff1673ffffffffffffffffffffffffffffffffffffffff1681526020019250505060206040518083038186803b158015611cdd57600080fd5b505afa158015611cf1573d6000803e3d6000fd5b505050506040513d6020811015611d0757600080fd5b8101908080519060200190929190505050871115611d89578773ffffffffffffffffffffffffffffffffffffffff168273ffffffffffffffffffffffffffffffffffffffff167fbf182be802245e8ed88e4b8d3e4344c0863dd2a70334f089fd07265389306fcf896040518082815260200191505060405180910390a3600080fd5b600960009054906101000a900473ffffffffffffffffffffffffffffffffffffffff1673ffffffffffffffffffffffffffffffffffffffff166323b872dd838a8a6040518463ffffffff1660e01b8152600401808473ffffffffffffffffffffffffffffffffffffffff1673ffffffffffffffffffffffffffffffffffffffff1681526020018373ffffffffffffffffffffffffffffffffffffffff1673ffffffffffffffffffffffffffffffffffffffff1681526020018281526020019350505050602060405180830381600087803b158015611e6657600080fd5b505af1158015611e7a573d6000803e3d6000fd5b505050506040513d6020811015611e9057600080fd5b810190808051906020019092919050505050600060026001830381548110611eb457fe5b906000526020600020906008020160070160006101000a81548160ff0219169083151502179055508773ffffffffffffffffffffffffffffffffffffffff168273ffffffffffffffffffffffffffffffffffffffff167fd6d3eb25a413c05d8107fc49deb2789bef7f612582b2482804c0b0423b6638ee896040518082815260200191505060405180910390a3505050505050505050565b60066020528160005260406000208181548110611f6557fe5b90600052602060002001600091509150505481565b611f82612e71565b73ffffffffffffffffffffffffffffffffffffffff16611fa06120e8565b73ffffffffffffffffffffffffffffffffffffffff1614612029576040517f08c379a00000000000000000000000000000000000000000000000000000000081526004018080602001828103825260208152602001807f4f776e61626c653a2063616c6c6572206973206e6f7420746865206f776e657281525060200191505060405180910390fd5b600073ffffffffffffffffffffffffffffffffffffffff166000809054906101000a900473ffffffffffffffffffffffffffffffffffffffff1673ffffffffffffffffffffffffffffffffffffffff167f8be0079c531659141344cd1fd0a4f28419497f9722a3daafe3b4186f6b6457e060405160405180910390a360008060006101000a81548173ffffffffffffffffffffffffffffffffffffffff021916908373ffffffffffffffffffffffffffffffffffffffff160217905550565b60008060009054906101000a900473ffffffffffffffffffffffffffffffffffffffff16905090565b60086020528060005260406000206000915054906101000a900473ffffffffffffffffffffffffffffffffffffffff1681565b6002818154811061215157fe5b90600052602060002090600802016000915090508060000160009054906101000a900473ffffffffffffffffffffffffffffffffffffffff16908060010160009054906101000a900473ffffffffffffffffffffffffffffffffffffffff16908060020160009054906101000a900473ffffffffffffffffffffffffffffffffffffffff16908060030154908060040154908060050154908060060154908060070160009054906101000a900460ff16905088565b6000612210612e71565b73ffffffffffffffffffffffffffffffffffffffff1661222e6120e8565b73ffffffffffffffffffffffffffffffffffffffff16146122b7576040517f08c379a00000000000000000000000000000000000000000000000000000000081526004018080602001828103825260208152602001807f4f776e61626c653a2063616c6c6572206973206e6f7420746865206f776e657281525060200191505060405180910390fd5b816008600085815260200190815260200160002060006101000a81548173ffffffffffffffffffffffffffffffffffffffff021916908373ffffffffffffffffffffffffffffffffffffffff1602179055506001905092915050565b600080600090505b600160008773ffffffffffffffffffffffffffffffffffffffff1673ffffffffffffffffffffffffffffffffffffffff1681526020019081526020016000208054905081101561244f576000600160008873ffffffffffffffffffffffffffffffffffffffff1673ffffffffffffffffffffffffffffffffffffffff16815260200190815260200160002082815481106123b157fe5b9060005260206000200154905085600282815481106123cc57fe5b906000526020600020906008020160040154148015612408575084600282815481106123f457fe5b906000526020600020906008020160050154145b80156124315750836002828154811061241d57fe5b906000526020600020906008020160060154145b1561244157600192505050612713565b50808060010191505061231b565b5060008090505b600360008773ffffffffffffffffffffffffffffffffffffffff1673ffffffffffffffffffffffffffffffffffffffff1681526020019081526020016000208054905081101561258a576000600360008873ffffffffffffffffffffffffffffffffffffffff1673ffffffffffffffffffffffffffffffffffffffff16815260200190815260200160002082815481106124ec57fe5b90600052602060002001549050856007828154811061250757fe5b9060005260206000209060050201600001541480156125435750846007828154811061252f57fe5b906000526020600020906005020160010154145b801561256c5750836007828154811061255857fe5b906000526020600020906005020160020154145b1561257c57600192505050612713565b508080600101915050612456565b506000600460008773ffffffffffffffffffffffffffffffffffffffff1673ffffffffffffffffffffffffffffffffffffffff1681526020019081526020016000208054905090505b600081111561270d576000600460008873ffffffffffffffffffffffffffffffffffffffff1673ffffffffffffffffffffffffffffffffffffffff168152602001908152602001600020600183038154811061262b57fe5b90600052602060002001549050856007828154811061264657fe5b9060005260206000209060050201600001541480156126825750846007828154811061266e57fe5b906000526020600020906005020160010154145b80156126ab5750836007828154811061269757fe5b906000526020600020906005020160020154145b156126fe5760001515600782815481106126c157fe5b906000526020600020906005020160040160149054906101000a900460ff16151514156126f357600092505050612713565b600192505050612713565b508080600190039150506125d3565b50600090505b949350505050565b6001602052816000526040600020818154811061273457fe5b90600052602060002001600091509150505481565b606060006001905060008090505b6002805490508110156127f057856002828154811061277257fe5b9060005260206000209060080201600401541480156127ae5750846002828154811061279a57fe5b906000526020600020906008020160050154145b80156127d7575083600282815481106127c357fe5b906000526020600020906008020160060154145b156127e3576001820191505b8080600101915050612757565b506060816040519080825280602002602001820160405280156128225781602001602082028038833980820191505090505b509050600080905060008090505b60028054905081101561294e57876002828154811061284b57fe5b9060005260206000209060080201600401541480156128875750866002828154811061287357fe5b906000526020600020906008020160050154145b80156128b05750856002828154811061289c57fe5b906000526020600020906008020160060154145b1561294157600281815481106128c257fe5b906000526020600020906008020160020160009054906101000a900473ffffffffffffffffffffffffffffffffffffffff1683838151811061290057fe5b602002602001019073ffffffffffffffffffffffffffffffffffffffff16908173ffffffffffffffffffffffffffffffffffffffff16815250506001820191505b8080600101915050612830565b508193505050509392505050565b6129646117af565b156129d7576040517f08c379a00000000000000000000000000000000000000000000000000000000081526004018080602001828103825260108152602001807f5061757361626c653a207061757365640000000000000000000000000000000081525060200191505060405180910390fd5b60003390506000809050600060056000868152602001908152602001600020805490501180612a1c575060006006600085815260200190815260200160002080549050115b15612a2657600190505b600015158115151415612c775760076040518060c001604052808781526020018681526020018581526020018473ffffffffffffffffffffffffffffffffffffffff1681526020018473ffffffffffffffffffffffffffffffffffffffff16815260200160011515815250908060018154018082558091505060019003906000526020600020906005020160009091909190915060008201518160000155602082015181600101556040820151816002015560608201518160030160006101000a81548173ffffffffffffffffffffffffffffffffffffffff021916908373ffffffffffffffffffffffffffffffffffffffff16021790555060808201518160040160006101000a81548173ffffffffffffffffffffffffffffffffffffffff021916908373ffffffffffffffffffffffffffffffffffffffff16021790555060a08201518160040160146101000a81548160ff021916908315150217905550505060006007805490509050600360008473ffffffffffffffffffffffffffffffffffffffff1673ffffffffffffffffffffffffffffffffffffffff1681526020019081526020016000206001820390806001815401808255809150506001900390600052602060002001600090919091909150556005600086815260200190815260200160002060018203908060018154018082558091505060019003906000526020600020016000909190919091505560066000858152602001908152602001600020600182039080600181540180825580915050600190039060005260206000200160009091909190915055505b5050505050565b612c86612e71565b73ffffffffffffffffffffffffffffffffffffffff16612ca46120e8565b73ffffffffffffffffffffffffffffffffffffffff1614612d2d576040517f08c379a00000000000000000000000000000000000000000000000000000000081526004018080602001828103825260208152602001807f4f776e61626c653a2063616c6c6572206973206e6f7420746865206f776e657281525060200191505060405180910390fd5b600073ffffffffffffffffffffffffffffffffffffffff168173ffffffffffffffffffffffffffffffffffffffff161415612db3576040517f08c379a0000000000000000000000000000000000000000000000000000000008152600401808060200182810382526026815260200180612e7a6026913960400191505060405180910390fd5b8073ffffffffffffffffffffffffffffffffffffffff166000809054906101000a900473ffffffffffffffffffffffffffffffffffffffff1673ffffffffffffffffffffffffffffffffffffffff167f8be0079c531659141344cd1fd0a4f28419497f9722a3daafe3b4186f6b6457e060405160405180910390a3806000806101000a81548173ffffffffffffffffffffffffffffffffffffffff021916908373ffffffffffffffffffffffffffffffffffffffff16021790555050565b60003390509056fe4f776e61626c653a206e6577206f776e657220697320746865207a65726f2061646472657373a26469706673582212207aac6f16658c03dfbdfdedd84353ba0ab49c9f59c5a51f1c2ca7eb995ffac5df64736f6c63430006010033",
  "source": "pragma solidity >=0.6.0 <0.8.0;\n\nimport \"openzeppelin-solidity/contracts/token/ERC20/ERC20.sol\";\nimport \"openzeppelin-solidity/contracts/token/ERC20/ERC20Pausable.sol\";\nimport \"openzeppelin-solidity/contracts/access/Ownable.sol\";\n\ncontract Allostasis is Ownable, Pausable {\n    /**\n    * @dev Details of each transfer\n    * @param contract_ contract address of ER20 token to transfer\n    * @param to_ receiving account\n    * @param amount_ number of tokens to transfer to_ account\n    * @param type_ type of entity\n    * @param relation1_ relation part 1 of entity\n    * @param relation2_ relation part 2 of entity\n    * @param failed_ if transfer was successful or not\n    */\n    struct Transfer {\n        address contract_;\n        address to_;\n        address from_;\n        uint amount_;\n        bytes32 type_;\n        bytes32 relation1_;\n        bytes32 relation2_;\n        bool failed_;\n    }\n\n    /**\n    * @dev a mapping from transaction ID's to the sender address\n    * that initiates them. Owners can create several transactions\n    */\n    mapping(address => uint[]) public transactionIndexesToSender;\n\n    /**\n    * @dev a list of all transfers successful or unsuccessful\n    */\n    Transfer[] public transactions;\n\n    /**\n    * @dev Details of each Entity\n    * @param type_ type of entity\n    * @param relation1_ relation part 1 of content\n    * @param relation2_ relation part 2 of content\n    * @param owner_ owner of entity\n    * @param to_ target user\n    * @param access_ have access or not\n    */\n    struct Entity {\n        bytes32 type_;\n        bytes32 relation1_;\n        bytes32 relation2_;\n        address owner_;\n        address to_;\n        bool access_;\n    }\n\n    /**\n    * @dev a mapping from entity ID's to the owner address\n    * that initiates them. Owners can create several entities\n    */\n    mapping(address => uint[]) public entityIndexesToOwner;\n\n    /**\n    * @dev a mapping from entity ID's to the target address\n    * that initiates them. Targets can gave several entities\n    */\n    mapping(address => uint[]) public entityIndexesToTarget;\n\n    /**\n    * @dev a mapping from entity ID's to the relation1\n    */\n    mapping(bytes32 => uint[]) public entityIndexesToRelation1;\n\n    /**\n    * @dev a mapping from entity ID's to the relation2\n    */\n    mapping(bytes32 => uint[]) public entityIndexesToRelation2;\n\n    /**\n    * @dev a list of all entities\n    */\n    Entity[] public entities;\n\n    /**\n    * @dev list of all supported tokens for transfer\n    * address contract address of token\n    */\n    mapping(bytes32 => address) public tokens;\n\n    ERC20 public ERC20Interface;\n\n    /**\n    * @dev Event to notify if transfer successful or failed\n    * after account approval verified\n    */\n    event TransferSuccessful(address indexed from_, address indexed to_, uint256 amount_);\n\n    event TransferFailed(address indexed from_, address indexed to_, uint256 amount_);\n\n    constructor() Ownable() public {}\n\n    /**\n    * @dev add address of token to list of supported tokens using\n    * token symbol as identifier in mapping\n    */\n    function addNewToken(bytes32 symbol_, address address_) public onlyOwner returns (bool) {\n        tokens[symbol_] = address_;\n\n        return true;\n    }\n\n    /**\n    * @dev remove address of token we no more support\n    */\n    function removeToken(bytes32 symbol_) public onlyOwner returns (bool) {\n        require(tokens[symbol_] != address(0));\n\n        delete(tokens[symbol_]);\n\n        return true;\n    }\n\n    /**\n    * @dev method that handles creating entity\n    * @param type_ type of entity\n    * @param relation1_ related part 1 of entity\n    * @param relation2_ related part 2 of entity\n    */\n    function createEntity(bytes32 type_, bytes32 relation1_, bytes32 relation2_) public whenNotPaused {\n        address from_ = msg.sender;\n\n        bool isDuplicate = false;\n        if (entityIndexesToRelation1[relation1_].length > 0 || entityIndexesToRelation2[relation2_].length > 0) {\n            isDuplicate = true;\n        }\n\n        if (isDuplicate == false) {\n            entities.push(\n                Entity({\n                    type_: type_,\n                    relation1_: relation1_,\n                    relation2_: relation2_,\n                    to_: from_,\n                    owner_: from_,\n                    access_: true\n                })\n            );\n\n            uint256 entityId = entities.length;\n\n            entityIndexesToOwner[from_].push(entityId - 1);\n            entityIndexesToRelation1[relation1_].push(entityId - 1);\n            entityIndexesToRelation2[relation2_].push(entityId - 1);\n        }\n    }\n\n    /**\n    * @dev method that handles granting access to entity\n    * @param type_ type of entity\n    * @param relation1_ related part 1 of entity\n    * @param relation2_ related part 2 of entity\n    * @param to_ address of target user\n    * @param access_ has access or not\n    */\n    function accessEntity(bytes32 type_, bytes32 relation1_, bytes32 relation2_, address to_, bool access_) public whenNotPaused {\n        address from_ = msg.sender;\n\n        if (from_ != to_) {\n            bool isOwner = false;\n            for (uint i = 0; i < entityIndexesToOwner[from_].length; i++) {\n                uint entityIndex = entityIndexesToOwner[from_][i];\n\n                if (entities[entityIndex].type_ == type_ && entities[entityIndex].relation1_ == relation1_ && entities[entityIndex].relation2_ == relation2_) {\n                    isOwner = true;\n                    break;\n                }\n            }\n\n            if (isOwner == true) {\n                entities.push(\n                    Entity({\n                        type_: type_,\n                        relation1_: relation1_,\n                        relation2_: relation2_,\n                        to_: to_,\n                        owner_: from_,\n                        access_: access_\n                    })\n                );\n\n                uint256 entityId = entities.length;\n\n                entityIndexesToTarget[to_].push(entityId - 1);\n                entityIndexesToRelation1[relation1_].push(entityId - 1);\n                entityIndexesToRelation2[relation2_].push(entityId - 1);\n            }\n        }\n    }\n\n    /**\n    * @dev method that handles transfer of ERC20 tokens to other address\n    * it assumes the calling address has approved this contract\n    * as spender\n    * @param symbol_ identifier mapping to a token contract address\n    * @param to_ beneficiary address\n    * @param amount_ numbers of token to transfer\n    * @param type_ type of entity\n    * @param relation1_ related part 1 of entity\n    * @param relation2_ related part 2 of entity\n    */\n    function transferTokens(bytes32 symbol_, address to_, uint256 amount_, bytes32 type_, bytes32 relation1_, bytes32 relation2_) public whenNotPaused {\n        require(tokens[symbol_] != address(0));\n        require(amount_ > 0);\n\n        address contract_ = tokens[symbol_];\n        address from_ = msg.sender;\n\n        ERC20Interface = ERC20(contract_);\n\n        transactions.push(\n            Transfer({\n                contract_: contract_,\n                to_: to_,\n                from_: from_,\n                amount_: amount_,\n                type_: type_,\n                relation1_: relation1_,\n                relation2_: relation2_,\n                failed_: true\n            })\n        );\n        uint256 transactionId = transactions.length;\n\n        transactionIndexesToSender[from_].push(transactionId - 1);\n\n        if(amount_ > ERC20Interface.allowance(from_, address(this))) {\n            emit TransferFailed(from_, to_, amount_);\n            revert();\n        }\n\n        ERC20Interface.transferFrom(from_, to_, amount_);\n\n        transactions[transactionId - 1].failed_ = false;\n\n        emit TransferSuccessful(from_, to_, amount_);\n    }\n\n    /**\n    * @dev allow contract to receive funds\n    */\n    event Received(address, uint);\n    receive() external payable {\n        emit Received(msg.sender, msg.value);\n    }\n\n    /**\n    * @dev withdraw funds from this contract\n    * @param beneficiary address to receive ether\n    */\n    function withdraw(address payable beneficiary) public payable onlyOwner whenNotPaused {\n        beneficiary.transfer(address(this).balance);\n    }\n\n    /**\n    * @dev validates to check if user can decrypt the entity using LIT\n    * @param type_ is the type of entity\n    * @param relation1_ is the part 1 of entity\n    * @param relation2_ is the part 2 of entity\n    */\n    function canDecrypt(address from_, bytes32 type_, bytes32 relation1_, bytes32 relation2_) public view virtual returns (bool) {\n        // Buyers can always decrypt\n        for (uint i = 0; i < transactionIndexesToSender[from_].length; i++) {\n            uint txIndex = transactionIndexesToSender[from_][i];\n\n            if (transactions[txIndex].type_ == type_ && transactions[txIndex].relation1_ == relation1_ && transactions[txIndex].relation2_ == relation2_) {\n                return true;\n            }\n        }\n\n        // Owners can always decrypt\n        for (uint i = 0; i < entityIndexesToOwner[from_].length; i++) {\n            uint entityIndex = entityIndexesToOwner[from_][i];\n\n            if (entities[entityIndex].type_ == type_ && entities[entityIndex].relation1_ == relation1_ && entities[entityIndex].relation2_ == relation2_) {\n                return true;\n            }\n        }\n\n        // Users with permission can decrypt if last status is true\n        for (uint i = entityIndexesToTarget[from_].length; i > 0; i--) {\n            uint entityIndex = entityIndexesToTarget[from_][i - 1];\n\n            if (entities[entityIndex].type_ == type_ && entities[entityIndex].relation1_ == relation1_ && entities[entityIndex].relation2_ == relation2_) {\n                if (entities[entityIndex].access_ == false) {\n                    return false;\n                } else {\n                    return true;\n                }\n            }\n        }\n\n        return false;\n    }\n\n    /**\n    * @dev returns wallets of buyers of the entity\n    * @param type_ is the type of entity\n    * @param relation1_ is the part 1 of entity\n    * @param relation2_ is the part 2 of entity\n    */\n    function entityBuyers(bytes32 type_, bytes32 relation1_, bytes32 relation2_) public view virtual returns (address[] memory) {\n        uint addressesCount = 1;\n\n        for (uint i = 0; i < transactions.length; i++) {\n            if (transactions[i].type_ == type_ && transactions[i].relation1_ == relation1_ && transactions[i].relation2_ == relation2_) {\n                addressesCount = addressesCount + 1;\n            }\n        }\n\n        address[] memory addresses = new address[](addressesCount);\n\n        uint push_i = 0;\n        for (uint i = 0; i < transactions.length; i++) {\n            if (transactions[i].type_ == type_ && transactions[i].relation1_ == relation1_ && transactions[i].relation2_ == relation2_) {\n                addresses[push_i] = transactions[i].from_;\n                push_i = push_i + 1;\n            }\n        }\n\n        return addresses;\n    }\n\n    /**\n    * @dev returns wallets which have permission of the entity\n    * @param type_ is the type of entity\n    * @param relation1_ is the part 1 of entity\n    * @param relation2_ is the part 2 of entity\n    */\n    function entityPermissions(bytes32 type_, bytes32 relation1_, bytes32 relation2_) public view virtual returns (address[] memory) {\n        uint addressesCount = 1;\n\n        for (uint i = entityIndexesToRelation1[relation1_].length; i > 0; i--) {\n            uint entityIndex = entityIndexesToRelation1[relation1_][i - 1];\n\n            if (entityIndexesToRelation2[relation2_][i - 1] == entityIndexesToRelation1[relation1_][i - 1] && entities[entityIndex].type_ == type_) {\n                addressesCount = addressesCount + 1;\n            }\n        }\n\n        address[] memory addresses = new address[](addressesCount);\n        address[] memory addressesChecked = new address[](addressesCount);\n\n        uint push_i = 0;\n        uint push_j = 0;\n        for (uint i = entityIndexesToRelation1[relation1_].length; i > 0; i--) {\n            uint entityIndex = entityIndexesToRelation1[relation1_][i - 1];\n\n            if (entityIndexesToRelation2[relation2_][i - 1] == entityIndexesToRelation1[relation1_][i - 1] && entities[entityIndex].type_ == type_) {\n                bool checked = false;\n                for (uint j = 0; j < addressesChecked.length; j++) {\n                    if (addressesChecked[j] == entities[entityIndex].to_) {\n                        checked = true;\n                        break;\n                    }\n                }\n\n                if (checked == false) {\n                    addressesChecked[push_j] = entities[entityIndex].to_;\n                    push_j = push_j + 1;\n\n                    if (entities[entityIndex].access_ == true) {\n                        addresses[push_i] = entities[entityIndex].to_;\n                        push_i = push_i + 1;\n                    }\n                }\n            }\n        }\n\n        return addresses;\n    }\n}\n",
  "sourcePath": "/Users/reza/Desktop/New-Projects/parsjahd/smart-contract/contracts/Allostasis.sol",
  "compiler": {
    "name": "solc",
    "version": "0.6.1+commit.e6f7d5a4.Emscripten.clang"
  },
  "schemaVersion": "3.4.13",
  "updatedAt": "2023-06-20T08:44:54.131Z",
  "networkType": "ethereum",
  "devdoc": {
    "methods": {
      "accessEntity(bytes32,bytes32,bytes32,address,bool)": {
        "details": "method that handles granting access to entity",
        "params": {
          "access_": "has access or not",
          "relation1_": "related part 1 of entity",
          "relation2_": "related part 2 of entity",
          "to_": "address of target user",
          "type_": "type of entity"
        }
      },
      "addNewToken(bytes32,address)": {
        "details": "add address of token to list of supported tokens using token symbol as identifier in mapping"
      },
      "canDecrypt(address,bytes32,bytes32,bytes32)": {
        "details": "validates to check if user can decrypt the entity using LIT",
        "params": {
          "relation1_": "is the part 1 of entity",
          "relation2_": "is the part 2 of entity",
          "type_": "is the type of entity"
        }
      },
      "createEntity(bytes32,bytes32,bytes32)": {
        "details": "method that handles creating entity",
        "params": {
          "relation1_": "related part 1 of entity",
          "relation2_": "related part 2 of entity",
          "type_": "type of entity"
        }
      },
      "entityBuyers(bytes32,bytes32,bytes32)": {
        "details": "returns wallets of buyers of the entity",
        "params": {
          "relation1_": "is the part 1 of entity",
          "relation2_": "is the part 2 of entity",
          "type_": "is the type of entity"
        }
      },
      "entityPermissions(bytes32,bytes32,bytes32)": {
        "details": "returns wallets which have permission of the entity",
        "params": {
          "relation1_": "is the part 1 of entity",
          "relation2_": "is the part 2 of entity",
          "type_": "is the type of entity"
        }
      },
      "owner()": {
        "details": "Returns the address of the current owner."
      },
      "paused()": {
        "details": "Returns true if the contract is paused, and false otherwise."
      },
      "removeToken(bytes32)": {
        "details": "remove address of token we no more support"
      },
      "renounceOwnership()": {
        "details": "Leaves the contract without owner. It will not be possible to call `onlyOwner` functions anymore. Can only be called by the current owner.     * NOTE: Renouncing ownership will leave the contract without an owner, thereby removing any functionality that is only available to the owner."
      },
      "transferOwnership(address)": {
        "details": "Transfers ownership of the contract to a new account (`newOwner`). Can only be called by the current owner."
      },
      "transferTokens(bytes32,address,uint256,bytes32,bytes32,bytes32)": {
        "details": "method that handles transfer of ERC20 tokens to other address it assumes the calling address has approved this contract as spender",
        "params": {
          "amount_": "numbers of token to transfer",
          "relation1_": "related part 1 of entity",
          "relation2_": "related part 2 of entity",
          "symbol_": "identifier mapping to a token contract address",
          "to_": "beneficiary address",
          "type_": "type of entity"
        }
      },
      "withdraw(address)": {
        "details": "withdraw funds from this contract",
        "params": {
          "beneficiary": "address to receive ether"
        }
      }
    }
  },
  "userdoc": {
    "methods": {}
  }
}